:100000000C9437020C947E020C947E020C94211EF8
:100010000C947E020C947E020C947E020C947E0260
:100020000C947E020C947E020C9499250C946B2601
:100030000C94B3200C947E020C947E020C947E02ED
:100040000C947E020C947E020C947E020C947E0230
:100050000C947E020C9428210C947E020C947E0257
:100060000C947E020C947E020C947E020C947E0210
:100070000C947E020C947E020C947E020C947E0200
:100080000C947E020C947E020C947E020C947E02F0
:100090000C947E020C947E020C947E020C947E02E0
:1000A0000C947E020C947E020C947E0204060406DC
:1000B000300630069806B606DB07DB07C106560792
:1000C00067076707CB07DB07DB07D4078D088D08B9
:1000D0009F089F0896089F089F089F088D088D0815
:1000E0009B089F089F089B08D826FF26F727FF2616
:1000F000F7274B276E27F727C527D4271C000600B4
:100100000F0010000E000C001600150017000A006A
:10011000140019001A0007000D002C00E100000077
:10012000000000001D000900180036002800130020
:10013000110008000400120005000B0054003700F5
:100140001B00E000004100000000000029001F0229
:100150002002210222022B006700000000000000A4
:10016000350200000000000034020040E100000001
:1001700000000000E0002402250233002A00640091
:100180002F023002310228002F002F0230023000EF
:100190000042E20000430000000000002900FB00D4
:1001A000ED00FC0000002B00EF00EE00F0004C0022
:1001B0000000F200F900FA0000000040E300000037
:1001C00000000000B60000000000B7002A00500048
:1001D000510052004F002800F100FD00FE00FF001A
:1001E0000000E20000410000000000002900AE0015
:1001F000BC00BB0000002B000000AA00A9005700B3
:1002000000005500BE00BD0000440040E3000000B7
:100210000000000056005F00600061002A006700D7
:100220005C005D005E005800620059005A005B00EF
:100230000042E20000410000000000000000000059
:1002400000000000000000000000000000000000AE
:10025000000000000000000000000000000000009E
:100260000000000000004000410042004500000086
:100270003D003E003F00430000003A003B003C00D0
:10028000440000000000000000000000000000002A
:10029000000000002A2B28000000000000000000E1
:1002A0000000000000000029000000002C1E342087
:1002B000212224342627252E362D3738271E1F20AD
:1002C0002122232425263333362E37381F040506F2
:1002D0000708090A0B0C0D0E0F1011121314151636
:1002E0001718191A1B1C1D2F3130232D3504050634
:1002F0000708090A0B0C0D0E0F1011121314151616
:100300001718191A1B1C1D2F3130354C0000000026
:1003100000000000000000000000000000000000DD
:1003200000000000000000000000000000000000CD
:100330007E0F00D4FFFFFFC7000000781A034600BD
:10034000650072007200690073002000730077007E
:100350006500650070000000080344005000420082
:1003600000000403090409023B00020100A0FA098D
:1003700004000001030101000921110100012240D4
:10038000000705810308000A0904010001030000B9
:1003900000092111010001227B00070582032000D2
:1003A0000A1201000200000008ABC2393901000145
:1003B00002000105010902A10185020901A1000550
:1003C0000919012908150025019508750181020503
:1003D00001093009311581257F95027508810609CB
:1003E000381581257F950175088106050C0A3802AC
:1003F0001581257F950175088106C0C0050109801A
:10040000A101850319012AB700150126B70095013E
:1004100075108100C0050C0901A101850419012A8C
:10042000A002150126A002950175108100C00501EA
:100430000906A101050719E029E71500250195081E
:10044000750181029501750881010507190029FFD1
:10045000150026FF00950675088100050819012979
:1004600005950575019102950175039101C011244F
:100470001FBECFEFDAE0DEBFCDBF04B603FE27C05C
:100480008091B8029091B902A091BA02B091BB02DA
:100490008730904BA740B04BD1F41092B802109225
:1004A000B9021092BA021092BB0214BE84B7877FC1
:1004B00084BF0FB6F894A8958091600088618093FE
:1004C0006000109260000FBEE0E0F8E3099511E0D3
:1004D000A0E0B1E0EAE8F1E502C005900D92A43C8D
:1004E000B107D9F722E0A4ECB1E001C01D92A83B0E
:1004F000B207E1F70E94B4170C94C3280C940000D3
:100500009C013A9521153F4130F5BC016627727078
:10051000AC01442754709C012227387094FF0FC00F
:1005200090FF02C080E101C080E0672B09F080628B
:10053000452B09F08064232B79F080680895892F7A
:100540008170672B09F08260452B09F08460232BB2
:1005500019F08860089580E00895CF93DF93EC014F
:10056000805E9109089710F0209731F4CE010E9427
:1005700080020E94BF0505C0CE010E9480020E9439
:1005800053088C2FDF91CF910C948D04CF93DF9380
:10059000EC010E943705CE01805E9109089710F0AA
:1005A000209739F4CE010E948002DF91CF910C9404
:1005B000C605CE010E948002DF91CF910C945A08AB
:1005C000CF93DF93EC010E94AD02CE01DF91CF917A
:1005D0000C94C60281E0089581E008950C94EC0229
:1005E00008950C94F0021F93CF93DF9300D000D0B6
:1005F0001F92CDB7DEB749835A836B833091C60112
:1006000089819A81311114C0662359F0222349F05F
:100610000E94330A182F682F89819A810E94DA0973
:1006200003C00E94060A182F69817A81812F04C0B5
:100630000E94330A69817A810F900F900F900F907A
:100640000F90DF91CF911F910C94DE10FC01262FAB
:10065000408151816281738184810C94F30281E035
:100660000895CF93DF93EC0160E00E942603BE0162
:10067000DF91CF910C94F1020E945C130E9433042D
:100680000E94941A0C948E130C948A1380E00C949C
:10069000340408950C9449030E947B080E944A0385
:1006A0002FEF84E39CE0215080409040E1F700C0B0
:1006B00000000C944E210F931F93CF93DF938C0176
:1006C00061E00E942603EC01B8010E94EE0288233B
:1006D00009F444C0B801CE010E94381B8823F1F10F
:1006E000B801CE010E942C1D8823C1F1B801CE01B2
:1006F0000E94561B882391F1B801CE010E94881CEC
:10070000882361F1F8018281882309F1CB358DE5D9
:10071000D807C1F050F4C115FCE5DF0781F0CF3DEB
:10072000DC45A9F40E94EA0F19C0CC35EDE5DE07DF
:1007300061F0CD35DD4559F40E942D0F08C00E94AF
:100740004C030CC00E94360F02C00E94390FC80132
:10075000DF91CF911F910F910C94EA0280E0DF911D
:10076000CF911F910F9108950C9449030E94AA1FE5
:100770000E9434040C94B403DF92EF92FF920F9323
:100780001F93CF93DF93E82FF0E0E457FD4FD49011
:10079000282F26952695269530E0F901E45DFC4F3B
:1007A0000491877010E0082E02C0159507950A94F1
:1007B000E2F701701127F901E45EFC4FE490F12C9F
:1007C000082E02C0F594E7940A94E2F791E0E9223A
:1007D000FF24F901E45FFC4FC491D0E002C0D5953D
:1007E000C7958A95E2F7C170DD270115110519F04B
:1007F00081EE0E948D04E114F10419F086EE0E944E
:100800008D048D2D0E94B605EF2819F086EE0E940A
:100810003705012B19F081EE0E943705CD2B51F0E1
:100820008CE2DF91CF911F910F91FF90EF90DF90BD
:100830000C94B605DF91CF911F910F91FF90EF902F
:10084000DF900895982F9F709A50963010F0805D39
:1008500001C0895A0C94BC0308950C942C0481E0C7
:1008600008950C942F040895CF93C82F0E942D044F
:100870008C2F0E943104CF910895CF93DF93CDB791
:10088000DEB72B970FB6F894DEBF0FBECDBF4F83F8
:10089000588769877A878B8761110E94790E9E013C
:1008A0002F5F3F4F86E0F90111928A95E9F785E0C5
:1008B000FE013796D90101900D928A95E1F7898161
:1008C0009A814C815D81452B31F09F3F31F491E05D
:1008D0008F3F19F403C091E001C090E090FF09C080
:1008E00049815A816B817C818D819E810E94970D07
:1008F00005C0C9010E942F038111F2CF2B960FB6BC
:10090000F894DEBF0FBECDBFDF91CF910895FC01FB
:10091000808191810E94750A0895CF93882309F4FC
:10092000A4C0C82F8238C1F40E94AA1F81FD9DC0B7
:1009300069E380910201909103010E9447200E9487
:10094000AB0E2FEF81EE94E0215080409040E1F714
:1009500000C0000069E319C0833801F50E94AA1F96
:1009600080FD83C063E580910201909103010E94A4
:1009700047200E94AB0E2FEF81EE94E02150804083
:100980009040E1F700C0000063E580910201909182
:1009900003010E944920CF910C94AB0E8438C1F41E
:1009A0000E94AA1F82FD61C067E4809102019091BC
:1009B00003010E9447200E94AB0E2FEF81EE94E0CE
:1009C000215080409040E1F700C0000067E4DDCF97
:1009D0008CEF8C0F813AD0F46C2F809102019091B2
:1009E00003010E941120882349F06C2F809102019D
:1009F000909103010E9449200E94AB0E6C2F8091C0
:100A00000201909103010E944720C5CF80E28C0F24
:100A1000883048F4C77081E001C0880FCA95EAF7B2
:100A20000E94590EB8CFEBE5EC0FE33040F4F0E054
:100A3000E257FE4F808190E0CF910C94D91FE8E5FA
:100A4000EC0FE73150F4F0E0EE0FFF1FE05AFE4FDD
:100A500080819181CF910C94EF1FCD3E30F08C2F8F
:100A60000E944318CF910C941519CF9108958823B3
:100A700009F464C0823879F40E94AA1F81FF5EC025
:100A800069E380910201909103010E9447200E9436
:100A9000AB0E69E310C08338B1F40E94AA1F80FF37
:100AA0004DC063E580910201909103010E944720AF
:100AB0000E94AB0E63E580910201909103010E94B8
:100AC00049200C94AB0E843879F40E94AA1F82FF4F
:100AD00035C067E480910201909103010E94472094
:100AE0000E94AB0E67E4E7CF9CEF980F913A10F4A9
:100AF000682FE1CF90E2980F983050F4877091E022
:100B000001C0990F8A95EAF7892F0E945F0ED9CF0D
:100B10009BE5980F933020F480E090E00C94D91F6F
:100B200098E5980F973120F480E090E00C94EF1F47
:100B30008D3E20F00E949E180C94151908951F9365
:100B4000CF93DF93182FEB010E948D04209741F083
:100B50008FE99FE00197F1F700C000002197F6CFE1
:100B6000812FDF91CF911F910C943705893319F0B4
:100B700060E070E002C060E570E00C949F0588239F
:100B800021F00E94590E0C94AB0E0895882321F099
:100B90000E945F0E0C94AB0E0895CF92DF92EF92FD
:100BA000FF920F931F93CF93DF937C01162FC72FD4
:100BB000FC01D281058102950F700E944F0E88239F
:100BC000B9F0DD23A9F08C2F807F803421F080E202
:100BD000810F883068F080918C0282FD09C082E02C
:100BE0000E94FB0E0E944F0E91E0D82ED92601C024
:100BF000D12CCC2EC2948FE0C8228C2D90E0FC0129
:100C0000EA5AFF4F0C9451288C2F807FCF70882395
:100C100011F0C295C07FDD2399F0CC2309F4A6C161
:100C200080E2810F883010F0111104C08C2F0E94D7
:100C3000590E03C08C2F0E946C0E0E94AB0E96C101
:100C4000812F0E943705CC2309F4B5C180E2810FC2
:100C5000883038F1112329F18C2F0E94720E24C0A4
:100C60008C2F807FCF70803211F0C295C07F11230E
:100C700019F01130A1F13DC080918C0282FF17C0A4
:100C8000DD2349F0CC2329F08C2F0E94590E0E94BD
:100C9000AB0E80E06CC180E00E943705CC2309F4E4
:100CA0008AC18C2F0E945F0E0E94AB0E84C1DD238F
:100CB00071F0002341F0013031F40E948C0E8C2B36
:100CC0000E94940E78C10E948C0E8C2B1DC00023B4
:100CD00019F0013009F46FC10E94A10E25C0DD2377
:100CE00021F0063008F067C10EC0053008F063C17E
:100CF0001BC0DD2361F0002331F0F701858180FF07
:100D000035C18F7085838C2F0E94BF0554C100238D
:100D100059F0193309F03BC1FFEF27EE83E0F150A2
:100D200020408040E1F731C18C2F0E94C60543C1AD
:100D30008C2F86958695837019F0813061F03BC1C8
:100D4000DD2321F0812F9C2F937002C080E090E082
:100D50000E94D91F38C1DD2321F0812F9C2F937071
:100D600002C080E090E00E94EF1F2DC1812FDD23A3
:100D700019F00E94431802C00E949E180E94151983
:100D800022C18C2F837009F045C0D11118C1412FA9
:100D9000429546954770440F440F612F6F70862F20
:100DA00090E0A0E0B0E0042E04C0880F991FAA1FB5
:100DB000BB1F0A94D2F714FF10C00FE010E020E030
:100DC00030E004C0000F111F221F331F4A95D2F7D5
:100DD000009510952095309503C000E010E0980133
:100DE000C695C695C370BC01CD01602B712B822BBB
:100DF000932BC23049F058F4C13019F00E94F0082A
:100E0000DEC00E94DE08DBC00E940209D8C00E943A
:100E1000DC08D5C0DD2319F08C2F817001C08695C8
:100E2000882309F4CCC0412F429546954770440F62
:100E3000440F612F6F70862F90E0A0E0B0E0042E89
:100E400004C0880F991FAA1FBB1F0A94D2F714FF72
:100E500010C00FE010E020E030E004C0000F111FD0
:100E6000221F331F4A95D2F7009510952095309593
:100E700003C000E010E09801C695C695C370BC01A0
:100E8000CD01602B712B822B932BC23049F058F48B
:100E9000C13019F00E94B50992C00E94A3098FC009
:100EA0000E94C7098CC00E94160989C0CF70DD233B
:100EB00039F08C2F0E943C09812F0E94BF057FC012
:100EC000812F0E94C6058C2F0E945D0978C0123FB9
:100ED00021F128F4103F41F0113FC1F043C0133F0E
:100EE00019F1143F79F03EC0DD2341F0053008F0E0
:100EF00062C08C2F8F710E9482095DC0063008F09D
:100F00005AC0F7CF80918C0282FF18C0DD2339F0E0
:100F10008C2F8F710E943C094EC0DD23C9F38C2FAA
:100F20008F710E945D0947C0DD2329F08C2F8F71DE
:100F30000E94270940C00E9422093DC0DD2349F0DC
:100F4000CF718C2F0E943C0963E08C2F0E94E00E31
:100F500032C081E00E94FB0E023068F182E00E9404
:100F6000FB0E29C0DD2331F0002391F2812F0E9476
:100F70008D0421C0002399F2193349F49FEFE7EE65
:100F8000F3E09150E040F040E1F700C00000812F15
:100F90000E94370510C04C2F4F70612FC7010E946F
:100FA000DA100E94A30A0FC04C2F4F70612FC701A7
:100FB0000E94DD1008C088EF8C0D843020F40E9460
:100FC000AA1F0E943404DD20C9F00E944B0E80FD50
:100FD00015C0F70112820E94450E0E943C09C7010C
:100FE0000E941F080E94450EDF91CF911F910F9123
:100FF000FF90EF90DF90CF900C945D09DF91CF913F
:101000001F910F91FF90EF90DF90CF9008950F9375
:101010001F93CF93DF93EC01688179818A810E94CD
:10102000800A8C010E94D9090E94CA08B801CE0129
:101030000E94CD05DF91CF911F910F910895CF931D
:10104000DF93EC01988189812B813C81232B31F046
:101050008F3F31F481E09F3F19F403C081E001C06C
:1010600080E080FD1DC0CE010E945B03811110C095
:101070000E944F0E8823A1F08A81882389F08091F5
:101080008C0282FD0DC082E0DF91CF910C94FB0EAB
:10109000CE010E940708CE01DF91CF910C9431035D
:1010A000DF91CF910895882321F00E946C0E0C945B
:1010B000AB0E0895882321F00E94720E0C94AB0EA3
:1010C000089580E090E00E94D91F80E090E00E94A7
:1010D000EF1F0E94790E0E94890E0E94AB0E0E94A3
:1010E000461A0C94151980910201909103010E94F7
:1010F0004B200C9461080E94690E0C947308E92F30
:10110000E295EF704E2F50E0FA013297EE30F10584
:10111000B0F4EA59FF4F0C945128803F91F018F435
:10112000883E68F40EC0843F51F40BC0883E48F0FE
:10113000813F29F406C093FB882780F9089580E059
:10114000089581E00895FC01808191810E94750AD3
:101150000E947F080895CF93DF9300D000D01F92A4
:10116000CDB7DEB70F900F900F900F900F90DF91DB
:10117000CF910895CF93DF9300D000D000D0CDB7AA
:10118000DEB726960FB6F894DEBF0FBECDBFDF9157
:10119000CF910895089508950C94CB080C94CC0831
:1011A0000E94CE086093E4017093E5018093E6010C
:1011B0009093E7010C9461080C94D0080F931F934F
:1011C0000091E4011091E5012091E6013091E701E1
:1011D000602B712B822B932B1F910F910C94D008B5
:1011E0000F931F930091E4011091E5012091E60116
:1011F0003091E70160237123822393231F910F9184
:101200000C94D0080F931F930091E4011091E50115
:101210002091E6013091E70160277127822793270B
:101220001F910F910C94D0080C94CB080E941409C4
:101230006093E0017093E1018093E2019093E301F8
:101240000C94610860E070E0CB010C9416090F93D8
:101250001F9341E050E060E070E08A019B0104C010
:10126000000F111F221F331F8A95D2F7C901B80141
:101270001F910F910C9416090F931F9341E050E0BA
:1012800060E070E004C0440F551F661F771F8A9509
:10129000D2F78091E0019091E101A091E201B0913B
:1012A000E3018A019B01082B192B2A2B3B2BC90137
:1012B000B8011F910F910C9416090F931F9341E0F1
:1012C00050E060E070E004C0440F551F661F771FB8
:1012D0008A95D2F740955095609570958091E00180
:1012E0009091E101A091E201B091E3018A019B019B
:1012F000082319232A233B23C901B8011F910F9109
:101300000C9416090F931F9341E050E060E070E0E9
:1013100004C0440F551F661F771F8A95D2F780912E
:10132000E0019091E101A091E201B091E3018A0115
:101330009B01082719272A273B27C901B8011F91BC
:101340000F910C9416090F931F930091E0011091D7
:10135000E1012091E2013091E301602B712B822B9E
:10136000932B1F910F910C9416090F931F930091CB
:10137000E0011091E1012091E2013091E30160234D
:101380007123822393231F910F910C9416090F93BD
:101390001F930091E0011091E1012091E201309151
:1013A000E30160277127822793271F910F910C94E7
:1013B0001609089524E0929F900D1124890FE82FBB
:1013C000E695E695E695877051E001C0550F8A9540
:1013D000EAF785E0E89FF0011124E953FE4F20E091
:1013E00030E070E04081CB01022E02C096958795D7
:1013F0000A94E2F78170819584278523842781935D
:101400002F5F3F4F2530310569F7089524E0929F03
:10141000900D1124890F682F669566956695982F13
:10142000977085E0689FB001112440E050E080E0B3
:10143000FB01E40FF51FE953FE4F208130E0092E38
:1014400002C0369527950A94E2F721703327042EBF
:1014500001C0220F0A94EAF7822B4F5F5F4F45309D
:10146000510531F70895BF92CF92DF92EF92FF922C
:101470000F931F93CF93DF938C01C090E001D09026
:10148000E101E090E201F090E3018091E4019091AC
:10149000E501A091E601B091E701C82AD92AEA2A1C
:1014A000FB2ACFE1D0E0D701C6010C2E04C0B695CF
:1014B000A795979587950A94D2F780FD04C0219748
:1014C00090F7B12C07C0BC2EB8018C2F0E941512CA
:1014D0000197A9F38B2DDF91CF911F910F91FF9071
:1014E000EF90DF90CF90BF900895CF93DF93EC0102
:1014F0000E94330ABE010E941512DF91CF91089518
:101500001F93CF93DF93EB019091C601992321F0B4
:10151000CB010E94750A13C0882349F0CB010E94B9
:10152000330A182F682FCE010E94DA0904C0CB01BC
:101530000E94060A182FBE01812F0E941512DF910A
:10154000CF911F910895EF92FF920F931F93CF9326
:10155000DF938C01892B09F46CC0F12CEE24E39409
:10156000E8012196F8018491843740F4843008F032
:1015700051C0813081F0823019F15BC0853709F4A8
:1015800044C0A8F19CE7980F903708F052C08F77BD
:101590000E94370541C00E5F1F4FFE01849190E20B
:1015A000980F983050F48770FE2D01C0FF0F8A9578
:1015B000EAF78F2F0E947C0E14C00E948D042DC06C
:1015C0000E5F1F4FFE01849190E2980F983060F4F7
:1015D0008770FE2D01C0FF0F8A95EAF78F2F0E94BA
:1015E000820E0E94AB0E19C00E94370516C00E5F16
:1015F0001F4FFE01C491CC2381F08FE99FE001973A
:10160000F1F700C00000C150F6CF0E5F1F4FFE0182
:10161000F49003C00E948D048E018F2D882309F45D
:101620009FCFEFE9FFE03197F1F700C00000815054
:10163000F5CFDF91CF911F910F91FF90EF9008951B
:101640001F93CF93DF93C091E80116E08091E901E9
:10165000C81799F0D0E01C9FF0011D9FF00D1124D8
:10166000E651FE4F40815181628173818481958171
:101670000E94BA082196C770E9CFDF91CF911F91E0
:10168000089540911A0250911B0260911C027091C2
:101690001D0280911E0290911F020C94BA08EF92D5
:1016A000FF920F931F93CF93DF9380911F02829538
:1016B0008F7009F065C080911C02882309F460C016
:1016C0008091E801F090E90110911A0200911B024B
:1016D00060911D0270911E0291E01F3F09F090E0A1
:1016E000C0910001D0910101292F96E0E92E8F15BC
:1016F00009F446C06115710521F00F3F21F030E07B
:1017000003C031E001C0322F90E030FD36C0E89ECA
:10171000F001E99EF00D1124DF01A651BE4F119694
:101720003C911197301329C03C91311326C0129679
:101730003C911297311121C013964D915C911497F1
:10174000461B570B4C175D07C0F480911F028F702A
:10175000806180931F02E151FE4F80818F70806114
:1017600080838AE192E00E941F08DF91CF911F9150
:101770000F91FF90EF900C94200B01968770B7CFDC
:10178000DF91CF911F910F91FF90EF9008959F925D
:10179000AF92BF92CF92DF92EF92FF920F931F937F
:1017A000CF93DF93CDB7DEB761970FB6F894DEBF66
:1017B0000FBECDBF8C0185E0F801DE011D960190C2
:1017C0000D928A95E1F7D8011296EC9090911A0249
:1017D000E0911B0220911D0230911E02211531055E
:1017E00031F0EF3F31F481E09F3F19F403C081E015
:1017F00001C080E0B82FB1709B2E80FD47C1D80199
:101800004C9111965C9111971396AD90BC901497E2
:101810008AE1C82E82E0D82EF0901C02B501621B2E
:10182000730B2091000130910101FF2009F4D9C010
:1018300080911F026217730708F095C0282F207F40
:1018400009F052C05E1313C0491311C0FE2CE11001
:101850000EC08F70806180931F020E94410BC601F1
:101860000E941F0880911F02F80185834DC1AB289B
:1018700031F05F3F31F481E04F3F19F403C081E064
:1018800001C080E080FD03C081E08E2502C080E0C1
:1018900090E0F82FF170FF2E80FF1CC08091E801CE
:1018A0002091E90136E0821709F40BC190E0389FDE
:1018B000F001399FF00D1124E651FE4F618156135E
:1018C00006C06081461303C06281E61203C0019620
:1018D0008770E9CFFE2CEE2009F416C180911F021B
:1018E000816080931F0254C05E1306C0491304C078
:1018F000E11002C0F80199C0C8010E94A308882322
:1019000061F1EE2051F120911F02822F82958F709C
:1019100090E0029774F080911A0290911B029887D0
:101920008F831986BB86AA862C87CE0107960E94D4
:101930001F0886E0F801AAE1B2E001900D928A95B5
:10194000E1F70E944F0B0E94410B0AC05E1711F194
:10195000C8010E94A30881112CC0C8010E941F0861
:10196000FF24F394D1C0282F207F81F77A2DB98AE4
:10197000A88A6E2D89890E94AB088AE192E00E94B4
:101980001F0886E0D6011D928A95E9F70E94410B57
:10199000F12CBAC04913DCCFE110DACFF80185830E
:1019A000C8010E941F0886E0D6011D928A95E9F7BA
:1019B000ABC0EE2091F220911F02822F82958F7092
:1019C00090E002970CF4B5CF80911A0290911B021F
:1019D0009A8389831B82BD82AC822E83CE010196BD
:1019E000A6CF6217730708F044C0FE2CEE2009F45E
:1019F000B4CF5E1330C049132EC020911F0220FDCA
:101A000021C0822F82958F70482F50E041155105DB
:101A1000C9F0F80125834F30510541F08F5F982FB1
:101A20009295907F822F8F70892B8583C8010E94A9
:101A30001F0886E0F801AAE1B2E001900D928A95B4
:101A4000E1F73CC086E0F801AAE1B2E001900D9216
:101A50008A95E1F759C0C8010E94A308811169CF96
:101A600080911F02816080931F02C8010E941F089D
:101A70004BC07A2DB98AA88A6E2D89890E94AB083D
:101A800086E0D6011D928A95E9F718C0EE2009F488
:101A900064CFC8010E94A308F82E882309F45DCF03
:101AA00086E0F801AAE1B2E001900D928A95E1F793
:101AB0008AE192E00E9487040E944F0B0E94410B32
:101AC00023C04D875E878D859E850E94750A292FCC
:101AD00022952F70223028F49F7039F0811105C0B3
:101AE0000BC0243028F49F7049F4805E883020F0C9
:101AF000C8010E941F089F2CF92C06C0D80115961A
:101B00009C91907F91F7F8CF8F2D61960FB6F89446
:101B1000DEBF0FBECDBFDF91CF911F910F91FF9020
:101B2000EF90DF90CF90BF90AF909F9008951F935C
:101B3000CF93DF93CDB7DEB72C970FB6F894DEBF07
:101B40000FBECDBF4F83588769877A878B879C8765
:101B5000CE0107960E94C70B8823D1F09F8188850C
:101B60002A853B85232B31F08F3F31F481E09F3F65
:101B700019F403C081E001C080E080FD47C04F81BF
:101B8000588569857A858B859C850E94BA083EC0F8
:101B900086E0FE013796DE01119601900D928A953E
:101BA000E1F7FF81E8856A857B856115710531F074
:101BB000EF3F31F481E0FF3F19F403C081E001C041
:101BC00080E080FD23C02091E90130E0C901019649
:101BD000877099274091E80150E084179507F1F14B
:101BE000F983EA837D836C8396E0929FD001939F73
:101BF000B00D1124A651BE4FFE01319601900D92F9
:101C00009A95E1F78093E9010E94200B16E08091FC
:101C1000E8019091E901891771F1189FC001112421
:101C200086519E4F0E94C70B882329F1E091E8015D
:101C30001E9FF0011124E651FE4F408151816281C7
:101C40007381848195810E94BA088091E80190E0B7
:101C50000196877099278093E801D9CF0E947B086D
:101C60001092E9011092E801EAE1F2E086E0DF017A
:101C70001D928A95E9F72C960FB6F894DEBF0FBE39
:101C8000CDBFDF91CF911F9108958091200285955E
:101C9000859585950895809120028770089590918B
:101CA0002002977081E009F480E0089580912C0271
:101CB000089590912C02892B80932C020895809591
:101CC00090912C02892380932C02089580932C02FA
:101CD000089510922C02089590912B02892B8093E5
:101CE0002B020895809590912B02892380932B02DB
:101CF000089510922B02089590912A02892B8093C7
:101D00002A020895809590912A02892380932A02BD
:101D1000089510922A02089580912102089508954D
:101D20000C948F0E0C94900E90918C0292FD08C032
:101D300090912102981721F0809321020C94920E29
:101D4000089580912102882329F01092210280E0D9
:101D50000C94920E0895E0910201F091030180919C
:101D60002C028083E0910201F09103019081809127
:101D70002B02892B8083E0910201F0910301908175
:101D800080912A02892B808380912102882381F00F
:101D9000E0910201F09103019081892B8083809171
:101DA0000201909103010E94052081110E94A10E61
:101DB00080910201909103010C94C01F0C948F0E2E
:101DC00090918C0292FD10C098E0899F900111249F
:101DD000262B209320020E943C09809120028595A9
:101DE000859585950C94DE0E0C943C09109220028A
:101DF00080E00C94DE0E2091200280958223809357
:101E00002002982F977099F430E0482F082E000C8C
:101E1000550B2417350759F090918C0292FD07C09D
:101E20008595859585950E945D090C94F60E08951B
:101E300090918C0292FB222720F9281769F080FBF1
:101E400092F990938C0280918B0290918C020E9467
:101E5000660F82E00C94FB0E089580918C0282FB49
:101E6000882780F991E089270C94180F81E00C9461
:101E7000180F80E00C94180F6FEF7FEF80E090E078
:101E80000C94AD2880E090E00E94892821E0893EF2
:101E90009E4F09F020E0822F089582E090E00C949C
:101EA000812883E090E00C948128CF9384E090E037
:101EB0000E948128C82F82E290E00E9481282C2F66
:101EC00030E0A901582BCA01CF910895CF93C92FB3
:101ED000682F84E090E00E948F286C2F82E290E0CF
:101EE000CF910C948F28AB01BC018FE090E00C9453
:101EF000A128AB01BC0183E190E00C94A12860E033
:101F000070E0CB010C94790F60E070E0CB010E948F
:101F1000730F0C947F0F69EE7EEF80E090E00E94DB
:101F2000AD2860E082E090E00E948F2860E083E0CE
:101F300090E00E948F281092E4011092E501109227
:101F4000E6011092E70160E084E090E00E948F28B3
:101F500060E082E290E00E948F2860E085E090E0FF
:101F60000E948F2860E086E090E00E948F286FEF4B
:101F700087E090E00E948F2840E050E0BA0188E0BE
:101F800090E00E94A12860E08DE090E00E948F2800
:101F900040E050E0BA0188E190E00E94A12860E0B2
:101FA00087E190E00E948F2840E050E0BA018CE188
:101FB00090E00E94A12860E070E080E290E00E9442
:101FC000AD2840E050E0BA0188E190E00E94A128ED
:101FD0000C94840F0C948B0F8EE090E00E9481286B
:101FE00091E0811101C090E0892F0895682F8EE063
:101FF00090E00C948F280E94F12060933A02709335
:102000003B0280933C0290933D02609336027093B2
:1020100037028093380290933902089585B780681B
:1020200085BF85B7806885BF08950C9471150895A4
:102030000C9417100C9417100C941A100C94171081
:102040000C941E100C9417100E940E1082E393E162
:102050000E94A01F0E9422100C9420100E941810B1
:102060000C9417100E94DC200E94F1120E94FE13B3
:102070000E94541A0C941C109F92AF92BF92CF9260
:10208000DF92EF92FF920F931F93CF93DF93CDB721
:10209000DEB72A970FB6F894DEBF0FBECDBF0E9401
:1020A000E41481110E94FB0F8EE2A82E82E0B82E6C
:1020B00000E010E0902E802F0E948013D82EF501B2
:1020C000C1905F01C826B1F40F5F1F4F08301105A2
:1020D00089F78FEF89838A831B820E94E5208160C4
:1020E000782F9D838C8349815A816B818D810E94D9
:1020F0003D042FC080913E0281FD0E948613E12C99
:10210000FF24F3948C2D8F21F1F00E941510882369
:1021100099F0EE829F82DF2081E009F480E08887D9
:102120000E94E5208160782F9A8789874E815F81A0
:1021300068858A850E943D04F801E25DFD4F80813B
:10214000F826F08206C0E394FF0CF5E0EF12DACF38
:10215000BBCF0E9433190E94AA1F90912D028917AC
:10216000B9F00E94AA1F80932D022A960FB6F89408
:10217000DEBF0FBECDBFDF91CF911F910F91FF90BA
:10218000EF90DF90CF90BF90AF909F900C9434046D
:102190002A960FB6F894DEBF0FBECDBFDF91CF9168
:1021A0001F910F91FF90EF90DF90CF90BF90AF9075
:1021B0009F90089580E090E00895089528E2829F1E
:1021C000C0011124FC0125E0729FE00DF11D1124D6
:1021D000E60FF11DEE0FFF1FE450FF4F8591949124
:1021E0000895880F991FFC01E45CFC4F8591949140
:1021F0000895CF93DF930E941A12EC01811520E518
:10220000920708F03FC0811540E4940708F0D2C05F
:10221000883E910500F5803E910508F002C1883A9C
:10222000910570F4853A910508F0A6C081309105BA
:1022300009F49FC008F4F2C0049708F0F2C0EEC0A1
:102240008F3B910508F4A1C0803C910508F4E6C0DD
:10225000805C9109A5C0811550E2950760F4C11515
:1022600081E0D80708F0DDC0CD3ED10508F4D6C026
:10227000CE019065D7C0811520E3920708F093C086
:102280009F708EC0811545E5940708F046C0811502
:1022900054E5950708F0A6C0C11582E5D80718F5E2
:1022A000C11521E5D20708F088C0CE01F4E096956B
:1022B0008795FA95E1F7282F23703C2F337081E042
:1022C00090E002C0880F991F3A95E2F79C68922B24
:1022D0002C2F2F702695269540E2249F90011124E3
:1022E000822B932B9FC09E01237033279C2F9695A2
:1022F0009695C115D34508F065C041E050E002C095
:10230000440F551F2A95E2F780E2989F900111240F
:10231000CA01822B932B9C6885C0811559E59507CE
:1023200098F4C11588E5D80708F061C0C11526E505
:10233000D20708F073C08C2F0E94AE128F7190E00C
:10234000982F882790626EC081154AE5940708F49B
:1023500053C090568115904208F060C08D2F8F7148
:102360000E94AE129E01332730628F71A901582B53
:1023700053C081E090E056C0855AC82FD0E0C154C8
:10238000DE4F888190E090644DC0885AC82FD0E01D
:10239000CC0FDD1FCF56DE4F88819981946442C0F7
:1023A0000E94F1103FC09927D3FF02C0986C3AC039
:1023B000906C38C09F70906A35C09C2F8827816FC1
:1023C000906A30C041E050E002C0440F551F2A958A
:1023D000E2F780E2989F90011124CA01822B932B8F
:1023E0009A6820C0982F8827846F906A1BC09C2F02
:1023F0008827806F906A16C08F700E94AE129E016F
:1024000094E0369527959A95E1F72F7030E0322FBA
:1024100022273069A901482BCA0104C080E090E05E
:1024200001C0CE01DF91CF9108950E94DE100E947D
:10243000F91008958238910569F1B0F4813391055E
:1024400009F46DC048F48932910509F463C08A32F9
:10245000910509F469C008958533910509F455C0C3
:1024600089339105B9F00895833E910569F138F4F7
:10247000803E9105B1F0823E910509F10895863EB6
:102480009105A9F1873E9105B9F1843E910509F0C6
:1024900064C023C020918B0220FD4FC021FD4DC0A0
:1024A000089580918B0280FD44C080918C0280FF52
:1024B00044C080918B0284FD42C083EE4DC0809168
:1024C0008B0282FF38C0F5CF80918B0282FD33C032
:1024D00080918C0280FD31C0ECCF80918C0281FF15
:1024E00032C080918B0284FD2AC087EE35C0809176
:1024F0008B0283FF26C0F5CF80918B0283FD21C024
:1025000080918C0281FD1FC0ECCF80918B0285FDF4
:102510001CC01DC080918B0285FD19C016C0809122
:102520008B0286FD16C017C080918B0286FD13C0FA
:1025300010C089E311C082EE0FC080EE0DC080E0B4
:102540000BC086EE09C084EE07C089E205C085E3B2
:1025500003C08AE201C081E390E0089590918B026C
:1025600092FF0DC0282F2871283019F4877F8460CE
:1025700006C0282F2471243011F48B7F886093FFCC
:102580000DC0282F2871283119F4877E846106C078
:10259000282F2471243111F48B7E886120918C02C4
:1025A00020FF0DC0382F3871383019F4877F8160D3
:1025B00006C0382F3171313011F48E7F886021FFD1
:1025C0000DC0282F2871283119F4877E816106C03B
:1025D000282F2171213111F48E7E886194FD877E30
:1025E0000895109287021092880210928902109228
:1025F0008A020895CF92DF92EF92FF926B017C01E5
:102600000E94711581110EC00E94F120C61AD70ACE
:10261000E80AF90AC0928702D0928802E092890201
:10262000F0928A02FF90EF90DF90CF9008950F9381
:102630001F930E947115882321F01F910F910C9414
:10264000F1200E94F12000918702109188022091D0
:10265000890230918A02600F711F821F931F1F91A0
:102660000F91089580E008950C943C0FCF930E9441
:10267000E4148FE39CE90197F1F700C000000E9489
:10268000E4140E946F15811102C0C4E001C0C0E0D3
:102690008C2F0E94801390E002C095958795CA9573
:1026A000E2F780FF05C00E943413CF910C944E21B5
:1026B000CF9108950C9436130E94420F811102C0ED
:1026C0000E94EA0F0E944D0F80933E020E94550F18
:1026D00090938C0280938B020E945A130E94510F98
:1026E000682F70E080E090E00E94DC086091E001DB
:1026F0007091E1018091E2019091E3010C94140941
:10270000E82FF0E0EB56FD4F80810895089508957D
:102710000C9487130C9488130C9487130C948C13CB
:1027200008950C949013CF93DF9344E051E0A1E01F
:10273000B0E020E030E0FA01E20FF31F80818F3F2C
:10274000A1F0E82FE295EF70F0E061A18F70ED014C
:1027500002C0CC0FDD1F8A95E2F7CE019C2F909529
:10276000962391A392A1892B82A32F5F3F4F2530FF
:10277000310509F74B5F5F4FD1E04C325D07C9F679
:10278000DF91CF9108950F931F93CF93DF93EC01C7
:10279000062F10E085E0689FB001112440E050E072
:1027A000B1E0A0E0CA01860F971F8C5F9E4FFC012D
:1027B00090819F3FA1F0292F22952F7030E0F901E1
:1027C00020A130E09F7002C0359527959A95E2F7D9
:1027D00020FD02C08B2F02C080E090E0A82BBB0F31
:1027E0004F5F5F4F45305105E9F6F801EC0FFD1FD3
:1027F000A083DF91CF911F910F910895CF93DF9325
:10280000CDB7DEB7A8970FB6F894DEBF0FBECDBF29
:102810000E94891580912C01811148C0FE013196DA
:1028200028E2DF011D922A95E9F724EF298325EF9D
:102830002A8326EF2B8327EF2C8326EC2D8323E995
:102840002E8326E32F8322E3288723E3298721E3AE
:102850002A8727E92B8726E62C8724E92D8720E97C
:102860002E8721E92F8725E3288B24E3298B2FEF5F
:102870002A8B2B8B2C8BCF0144E051E0BE01675D8E
:102880007F4F20E030E0FA01E20FF31FDC01A20FDE
:10289000B31FAC91A0832F5F3F4F2530310599F7CF
:1028A00005964B5F5F4F8617970759F780912C016C
:1028B000811102C094E001C090E090939E0284E0F8
:1028C000891B80939D020E94931388E0E5E9F2E062
:1028D000DF01982F1D929A95E9F7EDE8F2E0DF010C
:1028E0001D928A95E9F784E00E9438150E943C0306
:1028F000A8960FB6F894DEBF0FBECDBFDF91CF9183
:102900000C9493150F931F93CF93DF9300D000D0B7
:10291000CDB7DEB70E94711560919E028823E9F160
:1029200019821A821B821C82862F90E08E010F5F13
:102930001F4FB8018B569D4F0E94A115882389F027
:1029400080919D0290E044E050E0B8018B569D4F8D
:102950000E946B2821E020933F02892B69F410E04C
:1029600019C080913F028823D1F384E0F8011192CD
:102970008A95E9F710923F02E0919D02F0E0EB5654
:10298000FD4F89819A81AB81BC8180839183A28331
:10299000B38311E00E9444030DC070E06B567D4F7D
:1029A00080919D0290E08B569D4F0E9431160E94AF
:1029B000911310E0812F0F900F900F900F90DF91E7
:1029C000CF911F910F910895EF92FF920F931F9354
:1029D000CF93DF93CDB7DEB728970FB6F894DEBF5D
:1029E0000FBECDBF8E010F5F1F4F88E0F80111921F
:1029F0008A95E9F7F12C6F2DC8010E94C313F39457
:102A0000F4E0FF12F8CF48E050E0B8018DE892E022
:102A10000E946B287C0121E0892B09F420E0E1145D
:102A2000F10441F088E0F801ADE8B2E001900D92C8
:102A30008A95E1F760919E0270E06B567D4F44E00D
:102A40008DE892E00E943915EF2819F40E94821453
:102A500002C081E090E028960FB6F894DEBF0FBE6A
:102A6000CDBFDF91CF911F910F91FF90EF9008950F
:102A70000895FF920F931F93CF93DF938C01F62E4F
:102A8000D72FC42F222349F081E0809342020E9475
:102A9000E520909341028093400280914202882376
:102AA000C1F080914002909141020E94FD20059763
:102AB00080F0EF2DFD2FD8014C2F50E0CD01801B71
:102AC000910B841795071CF48D918193F7CF109289
:102AD0004202DF91CF911F910F91FF9008950C94C6
:102AE000EC0F8091450281110DC00E9430288111A8
:102AF00002C082E001C081E080934502823011F47F
:102B00000E942B2881E090914502913009F080E0ED
:102B100008950E946F1580932C010E9471158111F8
:102B20000C94D91508950E947115811102C00C945E
:102B3000DB15089581E0909146029A3008F080E01C
:102B400008950F931F93CF93DF93EC018B01809136
:102B500046028A3038F4B801CE010E942F16811146
:102B60001DC00AC080914302909144020E94FD2042
:102B7000843F914080F715C0809146028F3F19F045
:102B80008F5F80934602809146028A3060F00E94F7
:102B9000E520909344028093430203C010924602C2
:102BA00002C080E001C081E0DF91CF911F910F91C1
:102BB00008950C94DB1D0C94DE1DEF92FF920F9391
:102BC0001F93CF93DF937901C82F880FDD0B411539
:102BD0005105A9F08AE08C9FF0018D9FF00D112422
:102BE000E35DFE4F83819481895B9D4F228130E0BC
:102BF0004217530708F49A01A9010E947828CE01D0
:102C00000E94E81E892B09F50115110501F18AE0E2
:102C10008C9FF0018D9FF00D1124E35DFE4F4581E7
:102C200050E00417150708F4A8018AE08C9FF00112
:102C30008D9FF00D1124E35DFE4F66817781695B06
:102C40007D4FC7010E94782802C080E001C081E06A
:102C5000DF91CF911F910F91FF90EF9008950C9409
:102C600052170C946E170F931F93CF93DF9300D0DE
:102C700000D0CDB7DEB760915C0270915D028091AB
:102C80005E0290915F020E940C21643671058105FD
:102C9000910528F10E941713DC01CB010296A11DBA
:102CA000B11D89839A83AB83BC8300E010E020E0F0
:102CB00030E044E050E0BE016F5F7F4F82E00E9451
:102CC000DD15182F882361F00E94F12060935C02CB
:102CD00070935D0280935E0290935F0201C011E0E9
:102CE000812F0F900F900F900F90DF91CF911F9138
:102CF0000F910895AF92BF92CF92DF92EF92FF9221
:102D00000F931F93CF93DF937C015B016A010E94B5
:102D10009A15811103C001E010E002C00AE010E042
:102D2000C1E0D0E0F894B501C701F60109957894A7
:102D3000811115C021960C171D0794F0CC9F9001AE
:102D4000CD9F300D300D112480E090E045E34A9591
:102D5000F1F70000019682179307C1F7E3CF81E0F6
:102D6000DF91CF911F910F91FF90EF90DF90CF9067
:102D7000BF90AF900895AF92BF92CF92DF92EF9243
:102D8000FF920F931F93CF93DF9300D000D01F9239
:102D9000CDB7DEB75B01E090C201F090C30101E066
:102DA00010E09E012B5F3F4F40E050E060E070E09C
:102DB00080E00E94DD15182F882309F43EC06701CA
:102DC0008FEFC81AD80A6091580270915902809109
:102DD0005A0290915B020E940C21643671058105B4
:102DE000910518F104E010E09E012F5F3F4F40E095
:102DF00050E060E070E081E00E94DD15182F64E093
:102E000070E0C6010E94551A91E02D81281390E0D0
:102E1000192351F10E94F1206093580270935902D6
:102E200080935A0290935B0211C064E070E0C60187
:102E30000E94551A9D818913D5CFF7018181928116
:102E4000A381B48189839A83AB83BC83112361F00E
:102E500089819A81AB81BC81809354029093550201
:102E6000A0935602B093570280915402909155025C
:102E7000A0915602B0915702F50180839183A283FD
:102E8000B383812F0F900F900F900F900F90DF91D1
:102E9000CF911F910F91FF90EF90DF90CF90BF9057
:102EA000AF9008950F931F93CF93DF93EC018B01A5
:102EB0004BEB56E10E947A16882351F043E356E12A
:102EC000B801CE01DF91CF911F910F910C947A162A
:102ED00080E0DF91CF911F910F9108950F931F9381
:102EE000CF93DF93F894C091C201D091C301CE017A
:102EF000019624E0FB01DC0101900D922A95E1F797
:102F000064E070E00E94551A88837894F8946D818B
:102F10007E818F81988500915002109151022091FD
:102F2000520230915302601771078207930751F0E4
:102F30006093500270935102809352029093530217
:102F40000E94FA127894DF91CF911F910F9108950A
:102F50000E94F1220E9432100C94FD220E94012353
:102F60000E943C100C941B230E946C200E94D822CB
:102F70000E9424100E94A8170E94AE170E942E10D3
:102F8000FBCF8091660280FF0BC06091500185E00D
:102F9000689FB001112475956795759567952BC04D
:102FA00081FF09C06091500185E0689FB001112444
:102FB0007595679520C082FF07C06091500185E03C
:102FC000689FB001112417C0909165029923D1F038
:102FD00060914F01961788F72091500185E0289F56
:102FE00090011124929FA001939F500D112470E035
:102FF000CA010E943D286038710540F461157105D1
:1030000019F406C065E070E0862F08958FE70895F3
:1030100081E008958091660280FF08C060914C01B4
:1030200070E0759567957595679521C081FF06C01D
:1030300060914C0170E07595679519C082FF04C0DE
:1030400060914C0170E010C090916402992399F056
:1030500060914B019617A0F780914C01899FC001A8
:10306000112470E00E943D286038710540F461151C
:10307000710519F406C061E070E0862F08958FE7AE
:10308000089581E008958D3E21F40E94C117819535
:1030900004C08E3E29F40E94C11780936A020895ED
:1030A0008F3E21F40E94C117819504C0803F29F40E
:1030B0000E94C117809369020895893F19F40E9404
:1030C0000A1805C08A3F31F40E940A18819580933E
:1030D0006B0208958B3F21F40E940A18819504C069
:1030E0008C3F29F40E940A1880936C0208959FE097
:1030F000980F983078F421E030E0A90102C0440F25
:10310000551F9A95E2F7CA0190916802892B809326
:10311000680208958D3F21F48091660281600BC0A2
:103120008E3F21F480916602826005C08F3F29F4B2
:103130008091660284608093660208958D3E39F422
:1031400090916A0297FF35C010926A0259C08E3E74
:1031500029F490916A021916BCF32BC09091690270
:103160008F3E29F497FF25C01092690249C0803F25
:1031700019F41916CCF31DC090916B02893F29F404
:103180001916BCF410926B023BC08A3F19F497FFEA
:1031900010C0F8CF8B3F39F490916C0297FF09C0B3
:1031A00010926C022DC08C3F21F490916C02191684
:1031B000BCF39FE0980F983080F421E030E0A90143
:1031C00002C0440F551F9A95E2F7CA01809590916D
:1031D000680289238093680213C08D3F21F4809197
:1031E00066028E7F0BC08E3F21F4809166028D7F38
:1031F00005C08F3F29F4809166028B7F8093660221
:1032000080916902811106C080916A02811102C019
:103210001092650280916B02811106C080916C0250
:10322000811102C01092640208950E94E52020914D
:103230006902211104C020916A02222321F0909397
:1032400063028093620220916B02211104C02091DD
:103250006C02222321F0909361028093600287E642
:1032600092E00C94CB1FEF92FF920F931F93CF939A
:10327000DF9300D000D000D0CDB7DEB786E0E7E620
:10328000F2E0DE01119601900D928A95E1F7E0904F
:103290006902F0906A0200916B0210916C02109228
:1032A000690210926A0210926B0210926C02E11095
:1032B00003C0FF2009F45DC0809162029091630217
:1032C0000E94FD20AC0190916502992339F0209174
:1032D000510130E02417350758F04BC020915201BE
:1032E0008AE0289F900111242417350718F041C067
:1032F0009F3F19F09F5F90936502EE2061F00E945E
:10330000C1171E1414F09FEF01C091E0989F902DFB
:10331000112490936902FF2061F00E94C1171F14CD
:1033200014F09FEF01C091E0989F902D112490938D
:103330006A02309169023323E1F020916A0222236C
:10334000C1F045EB3403C0011124992319F0909387
:10335000690203C081E08093690235EB2303C00159
:103360001124992319F090936A0203C081E080939D
:103370006A02011103C0112309F45DC0809160024B
:10338000909161020E94FD20AC019091640299230A
:1033900039F020914D0130E02417350758F04BC02B
:1033A00020914E018AE0289F9001112424173507AF
:1033B00018F041C09F3F19F09F5F90936402002373
:1033C00061F00E940A18101614F09FEF01C091E0FE
:1033D000989F902D112490936B02112361F00E940D
:1033E0000A18111614F09FEF01C091E0989F902DDC
:1033F000112490936C0230916B023323E1F0209101
:103400006C022223C1F045EB3403C001112499233F
:1034100019F090936B0203C081E080936B0235EB4F
:103420002303C0011124992319F090936C0203C067
:1034300081E080936C028091690281110BC08091C0
:103440006A02811107C080916B02811103C08091D3
:103450006C0281110E941519EB82FC820D831E8380
:1034600086E0FE013196A7E6B2E001900D928A95C2
:10347000E1F726960FB6F894DEBF0FBECDBFDF9101
:10348000CF911F910F91FF90EF900895E7E6F2E042
:1034900086E0DF011D928A95E9F71092650210928D
:1034A00064021092660208950895FC01680F791F66
:1034B0008FEF91E3E617F70771F02191822728E05B
:1034C00030E087FF03C0880F892701C0880F215093
:1034D0003109B9F7EFCF0895CF93DF9397FF0DC070
:1034E000FB012281222349F0EC010E94AA1ACE019D
:1034F0009F770E941D1B0E94F71A81E0DF91CF91F8
:1035000008959091A102923069F48A3040F490E0DD
:1035100009966AE070E00E943D28875A01C08650F3
:103520000C94B6050C9422048CE090E00E94812853
:1035300090E0A0E0B0E08093A1029093A202A0935B
:10354000A302B093A40208956091A1028CE090E0E0
:103550000C948F280E94BD1F869581708093A602CF
:103560000E94BD1F81708093A0028091A1028130D2
:1035700039F48091A602882319F089E30E94B605E8
:103580000E94560E8093A5020E94690E8091A102AE
:10359000813071F048F0823081F0843009F586EE98
:1035A0000E94B60588E11AC082EE0E948D0418C000
:1035B00088E193E00E94E00213C08091A002811193
:1035C00003C083E50E94B60582EE0E948D048FE35E
:1035D0009CE90197F1F700C0000087E50E94B6055D
:1035E0008FE39CE90197F1F700C0000008958091F6
:1035F000A102813059F030F0823089F08430C9F472
:1036000088E215C082EE0E94370513C08CE20E944A
:10361000B6058091A602882361F089E308C082EE96
:103620000E9437058091A002811103C083E50E94AA
:10363000B6058091A5020C94660E0F931F93CF934D
:10364000DF938C01CCE0D0E0C8010C2E02C096952F
:1036500087950A94E2F78F700E94811A2497CC3FD5
:103660008FEFD80789F7DF91CF911F910F910895C0
:103670000F931F93CF93DF93EC018B01FB018281AA
:10368000882361F00E94560ECE01825E9C458530F3
:10369000910520F48093A1020E94A41AB801CE01E2
:1036A000DF91CF911F910F910C946C1ACF93DF9300
:1036B000EC01FB018281882309F426C1C430FDE5B9
:1036C000DF0760F4CB3F9CE5D90768F49E012250E8
:1036D0003C452431310508F018C105C0C236EDE57E
:1036E000DE0709F012C10E94550F90938C0280935F
:1036F0008B02C031FCE5DF0709F4CAC008F041C005
:10370000C8309CE5D90709F4A4C0F0F4C430FCE546
:10371000DF0709F48CC068F4C2309CE5D90709F4CE
:1037200082C0C330DC4509F0E5C080918B02826025
:10373000DFC0C630FCE5DF0709F483C008F085C0B0
:1037400080918B028860D4C0CC309CE5D90709F405
:1037500090C068F4CA30FCE5DF0709F47EC008F0C9
:1037600084C00E947B0880918B028068C1C0CE30EB
:103770009CE5D90709F481C008F086C080918B02CE
:1037800094C0CD3FFCE5DF0709F47BC038F5C431B8
:103790009CE5D90709F49AC058F4C231FCE5DF076B
:1037A00009F47AC008F07EC080918B028F7BA0C0A4
:1037B000CB3F9CE5D907F1F108F03FC0C531DC45AE
:1037C00009F098C080918B0282FB222720F991E0BA
:1037D000922790FB82F990FB83F98AC0C1308DE576
:1037E000D80709F467C050F480918C02CF3FECE514
:1037F000DE07C1F108F05BC08D7F65C0C3308DE589
:10380000D80709F471C008F46DC0C236DD4509F06F
:1038100071C080918B0284FB222720F991E09227CE
:1038200090FB84F965C080918B02816061C08091BA
:103830008B0216C080918C0216C080918C0282602F
:1038400042C080918B02806153C080918B02806264
:103850004FC080918B0280644BC080918B02886046
:10386000846046C0826081602EC080918B028E7F12
:103870003FC080918B028D7F3BC080918B02877F00
:1038800037C080918C0214C080918B028F7E30C033
:1038900080918B028F7D2CC00E947B0880918B02CF
:1038A0008F7726C080918B02877F8B7F21C08D7F91
:1038B0008E7F09C080918C02982F909591708E7F99
:1038C000892B90FB81F980938C0214C00E947B08A5
:1038D00080918B0287FB222720F991E0922790FBB1
:1038E00087F906C081E001C080E00E94F60F02C0A7
:1038F00080938B0280918B0290918C020E94660FC4
:103900000E947B0880E001C081E0DF91CF910895A3
:10391000CF93DF9386319C4541F5EB010E94560E13
:10392000982F8A812091020130910301882379F038
:103930009A7A81E009F480E080936D02911102C0CF
:1039400069E201C065E3C9010E9447200AC0809175
:103950006D02811102C069E201C065E3C9010E94E4
:1039600049200E94AB0E80E001C081E0DF91CF9141
:1039700008950F931F93CF93DF93C42FD22FFC0191
:1039800082818823C9F0409370020E94E5209093C1
:103990006F0280936E0280E28C0F883008F057C06F
:1039A000C77081E001C0880FCA95EAF7DF91CF9117
:1039B0001F910F910C94BF0580917002481330C085
:1039C00080916E0290916F020E94FD20883C9105CB
:1039D00038F510E21D0FCD17B9F080E28C0F88305A
:1039E00040F4C77081E001C0880FCA95EAF70E94D1
:1039F000C605183028F581E09D2F977001C0880F0B
:103A00009A95EAF70E94BF05802F0E94B6051830EC
:103A1000F0F4D77081E001C0880FDA95EAF70AC0A8
:103A200080E28C0F883098F4C77081E001C0880F65
:103A3000CA95EAF7DF91CF911F910F910C94C605BB
:103A4000802FDF91CF911F910F910C94B605DF91DC
:103A5000CF911F910F9108950F939C01CB01243FAB
:103A60004CE5340731F188F4293DFCE53F07D9F0F6
:103A70002A3D4CE5340779F1283D3C45A9F506E29D
:103A800021EE41EE68ED7CE52BC0263FFCE53F07CB
:103A9000E1F0A8F0273F3C4539F507E225EE46EE78
:103AA00067EF7CE51DC007E225EE45EE69ED7CE59C
:103AB00017C006E221EE40EE64EF7CE511C007E29C
:103AC00025EE44EE65EF7CE50BC006E221EE42EE0A
:103AD00066EF7CE505C008E221E045EE6AED7CE595
:103AE0000E94B91C80E008C0FC018281882319F083
:103AF0001092700201C081E00F9108958EE14A9BFF
:103B000002C08150E1F74A9BFECF08955A9880E2A7
:103B10008A95F1F75A9A0895FC012AE02A95F1F75F
:103B200028E090E080E031E040E14A95F1F7880F2D
:103B30004A9B02C08160932700C0000040E14A9583
:103B4000F1F7215089F720E12A95F1F729B100C05A
:103B5000000030E13A95F1F722FB222720F9922765
:103B60002081920F90830895EF92FF920F931F93FD
:103B7000CF93DF931F92CDB7DEB719828C017C0102
:103B8000E60EF11C0E151F0551F00E947E1DCE01A0
:103B900001960E948C1DF80181938F01F3CF81E083
:103BA0009981911180E00F90DF91CF911F910F913A
:103BB000FF90EF900895529A5A9A089552985A9AFF
:103BC000EA9AE9E6F0E080818F7C80830895615075
:103BD00091E001C0990F6A95EAF720E031E099235E
:103BE00061F0492F482319F05A9A232701C05A98A7
:103BF00040E24A95F1F79695F2CF222311F05A9AB6
:103C000001C05A9880E28A95F1F75A980895FF9278
:103C10000F931F93CF93DF93EC018C01060F111DBF
:103C2000C017D10741F0F9900E94861D68E08F2DE2
:103C30000E94E71DF5CFDF91CF911F910F91FF906B
:103C400008951F920F920FB60F921124EF92FF92D8
:103C50000F931F932F933F934F935F936F937F9394
:103C60008F939F93AF93BF93EF93FF93CF93DF9384
:103C70001F92CDB7DEB719820E947E1DCE0101963C
:103C80000E948C1DA82FA695A695A6959A2F96956D
:103C900095702A2F2570920F292F2370969596954F
:103CA000920F877089137CC08981811179C0A430FB
:103CB00008F076C080E18A95F1F75A9A529AB2E0FC
:103CC000BA95F1F700C05A98EA2EF12CEAE0AE9FBF
:103CD000D0011124A35DBE4F1896ED91FC91199768
:103CE0003097B1F06091C2017091C30116962D9189
:103CF0003C911797260F371F13968D919C9114971F
:103D0000680F791F15964C91159712968C9109950D
:103D10008AE08E9DF0018F9DF00D1124E35DFE4F32
:103D20006581662351F08091C2019091C301268183
:103D30003781820F931F0E94071E0E94861DF0E1AB
:103D4000FA95F1F75A9852985A9A80E18A95F1F7C4
:103D50008AE08E9D80018F9D100D1124035D1E4F02
:103D6000D80112966C911297662399F08091C20146
:103D70009091C30113962D913C911497820F931F3C
:103D80000E94B41DD801ED91FC91811105C082E023
:103D900004C0D801ED91FC9188E080830E947E1DD3
:103DA0000F90DF91CF91FF91EF91BF91AF919F91D4
:103DB0008F917F916F915F914F913F912F911F91C3
:103DC0000F91FF90EF900F900FBE0F901F901895DE
:103DD0000F931F93CF93DF93843091050CF0A9C00C
:103DE0002AE0289FF001299FF00D1124E35DFE4F8A
:103DF00020813181232B09F49CC0EC01F894529A64
:103E00005A9885E08A95F1F700008C2F8695857089
:103E10009C2F9570890F982F9370869586958E01AB
:103E200023E0000F111F2A95E1F7890F082B0E944C
:103E3000861DA4E0AA95F1F700C068E0802F0E94DB
:103E4000E71DB0E1BA95F1F752985A9A4A9902C023
:103E500000C0FCCF87E090E04A9B17C0019799F41F
:103E6000529A5A9A8AE08C9FF0018D9FF00D11248E
:103E7000E35DFE4F0190F081E02D81E08083789436
:103E800081E090E058C000C0E7CF8AE08C9F8001BD
:103E90008D9F100D1124035D1E4FF801658166236F
:103EA000B9F08091C2019091C30126813781820FC0
:103EB000931F0E94B41D81110BC0529A5A9AD801C7
:103EC000ED91FC9182E08083789482E090E033C0B1
:103ED0000E947E1DB0E2BA95F1F75A98529AE0E13D
:103EE000EA95F1F78AE08C9FF0018D9FF00D112487
:103EF000E35DFE4F6281662351F08091C201909193
:103F0000C30123813481820F931F0E94071E0E94E8
:103F1000861D8AE08C9FF0018D9FF00D1124E35DDA
:103F2000FE4F0190F081E02D1082789480E090E0C7
:103F300002C084E090E0DF91CF911F910F9108952E
:103F40009093C5018093C401089590937702809364
:103F5000760208950E947115811103C0809171024B
:103F60000895E0917602F0917702309721F0019068
:103F7000F081E02D099480E008950E94AA1F089521
:103F8000E0917602F0917702309721F00280F38180
:103F9000E02D09940895E0917602F0917702309730
:103FA00039F022E0DC012C930480F581E02D0994A6
:103FB000089520917402309175022817390771F025
:103FC0009093750280937402E0917602F0917702EB
:103FD000309721F00680F781E02D09940895209113
:103FE0007202309173022817390771F090937302AF
:103FF00080937202E0917602F0917702309721F07F
:104000000084F185E02D09940895FC01329697E033
:1040100080E0915029F021912223D9F38F5FF9CFCD
:104020000895662349F0FC013296089621916217A3
:1040300029F0E817F907D1F780E0089581E00895A5
:104040009C01FC0132969FEF80E04191461789F078
:104050009F3F19F4411101C0982F8F5F8630A9F757
:104060009F3F39F0F901E90FF11D97FDFA95628341
:10407000089508959C012A5F3F4FFC014281461339
:1040800001C01282019682179307B9F708950C9424
:1040900020200C943A20029626E0FC0111922A95E9
:1040A000E9F7089508950C94522083E080937802F4
:1040B0000C945320811102C081E001C082E0809302
:1040C00078020C9453200C945A2081E0809378025B
:1040D0000C9453200C94652008958091AF02843095
:1040E00031F10E9446031092790220E488E190E0C9
:1040F0000FB6F894A895809360000FBE20936000DF
:1041000083B7817F846083BF83B7816083BF7894E6
:10411000889583B78E7F83BF0FB6F894A89580915A
:104120006000886180936000109260000FBE089567
:1041300008950C949820CF930E9499200E94E41433
:104140000E949820C0E08C2F0E948013811104C02F
:10415000CF5FC830C1F701C081E0CF9108950E94C0
:104160007B080C94B6031F920F920FB60F92112486
:104170008F939F93AF93BF9380917902811113C066
:104180008091A7029091A802A091A902B091AA02E1
:104190004196A11DB11D8093A7029093A802A09300
:1041A000A902B093AA02BF91AF919F918F910F90F6
:1041B0000FBE0F901F90189582E084BD93E095BDCF
:1041C0009AEF97BD80936E0008952FB7F894809171
:1041D000A7029091A802A091A902B091AA022FBFB4
:1041E00008952FB7F8946091A7027091A80280916A
:1041F000A9029091AA022FBF08959C014FB7F8948D
:104200008091A7029091A802A091A902B091AA0260
:104210004FBF821B930B0895CF92DF92EF92FF92D4
:104220002FB7F894C090A702D090A802E090A902FE
:10423000F090AA022FBFA7019601261B370B480B4F
:10424000590BCA01B901FF90EF90DF90CF9008950C
:1042500078941F920F920FB60F9211248F939F9311
:10426000AF93BF938091A7029091A802A091A90259
:10427000B091AA020196A11DB11D8093A70290934F
:10428000A802A093A902B093AA02BF91AF919F91F7
:104290008F910F900FBE0F901F90189587E797E7AB
:1042A00090930108809300089AE088E10FB6F89493
:1042B000A895809360000FBE90936000FFCF80911F
:1042C00085020895089522E02093E9002FEF3091B0
:1042D000E800215035FD06C035ED3A95F1F70000B4
:1042E0002111F5CF2091E80025FF0BC040E050E000
:1042F00066E070E00E948D238091E8008E778093C5
:10430000E8000895CF93DF9321E02093E9002FEF99
:104310003091E800215035FD06C035ED3A95F1F7B2
:1043200000002111F5CF2091E80025FF14C0EC0119
:1043300040E050E068E070E00E948D238091E8004A
:104340008E778093E80088E0FE01ADE7B2E001904F
:104350000D928A95E1F7DF91CF91089580937A02CB
:1043600070937C0260937B028091AF02843001F5F0
:1043700082E08093E9008FEF9091E800815095FDF5
:1043800006C095ED9A95F1F700008111F5CF809167
:10439000E80085FF0DC040E050E063E070E08AE790
:1043A00092E00E948D238091E8008E778093E80050
:1043B0000895BC0184E00C94AE21BC0183E00C9410
:1043C000AE218091AE02811109C00E941E250E947B
:1043D0007B258091E20084608093E2000895109232
:1043E000AE0208950C946A206091AB0281E06111E5
:1043F00001C080E00C9455209091AF0281E0943090
:1044000009F080E06091AB020C945A2042E061EC2C
:1044100081E00E94972442E261EC82E00E949724AE
:104420009091AF0281E0943009F080E06091AB029E
:104430000C9463208091B102833009F461C030F4A0
:10444000813071F0823009F49AC008958A3009F4FD
:1044500086C08B3009F46CC0893009F0A8C020C038
:104460008091B002813A09F0A2C08091E800877F74
:104470008093E8008091B4029091B502892B21F4D9
:1044800068E08DE792E003C060E080E090E070E0DB
:104490000E94D8238091E8008B778093E8000895EC
:1044A0008091B002813209F082C08091B402909173
:1044B000B502029708F07BC08091E800877F809367
:1044C000E8008091E80082FD05C08091AF02811173
:1044D000F8CF6DC02091F3008091F20090E0922B14
:1044E000029731F48091F100813011F0863021F48F
:1044F0008091F100809385028091E8008B7753C012
:104500008091B002813A09F052C08091B40290913A
:10451000B502892B09F04BC08091E800877F80931A
:10452000E8008091E80080FFFCCF80915F0136C0F9
:104530008091B0028132D9F58091B4029091B50298
:10454000892BA9F58091E800877F8093E8000E947D
:10455000CC248091B20280935F010C947B088091FF
:10456000B002813221F58091E800877F8093E800D6
:104570000E94CC248091B30280938602089580919A
:10458000B002813AA1F48091E800877F8093E8002F
:104590008091E80080FFFCCF809186028093F1003B
:1045A0008091E8008E778093E8000C94CC240895E5
:1045B00084B7877F84BF0FB6F894A8958091600078
:1045C000886180936000109260000FBE90E080E8E8
:1045D0000FB6F89480936100909361000FBE0C9425
:1045E00065200E941E250E947B25E2EEF0E080817E
:1045F0008460808378940C94102883E591E00C9477
:10460000A51F8091AF028530A9F48091AF0285305B
:1046100079F40E946D208091AD028823B1F30E944D
:104620009B20882391F30E9477230E947B08EDCF83
:104630000C94AF20089508950C941E23292F33273E
:1046400023303105C9F060F42130310581F022308A
:10465000310509F044C08BE390E026E633E043C027
:1046600021323105E1F02232310549F138C082E1D1
:1046700090E021EA33E037C099278130910549F075
:1046800028F0029761F5ECE3F3E005C0E2E6F3E021
:1046900002C0E8E5F3E0849190E09F0124C0611539
:1046A000710541F061307105D1F489E090E021E9B4
:1046B00033E019C089E090E028E733E014C06115C9
:1046C000710541F06130710551F48BE790E023EB07
:1046D00033E009C080E490E02EE234E004C080E0E2
:1046E00090E020E030E0FA0131832083089580E1FA
:1046F00089BD82E189BD09B400FEFDCF8091D8005B
:104700008F7D8093D8008091E00082608093E000EC
:104710008091E00081FDFCCF0895CF92DF92EF926F
:10472000FF920F931F93CF93DF93EC018B017A01DC
:104730000E94EB24811133C0E114F10439F0F70138
:1047400080819181081B190BC80FD91FC12CD12C56
:104750000115110519F18091E80085FD16C08091C1
:10476000E8008E778093E800E114F10449F0F70146
:1047700080819181C80ED91ED182C08285E00FC090
:104780000E94EB24882321F30AC089918093F100D1
:1047900001501109FFEFCF1ADF0ADACF80E0DF9175
:1047A000CF911F910F91FF90EF90DF90CF900895E0
:1047B0002091B6023091B7022617370748F06115ED
:1047C000710539F42091E8002E772093E80001C0AC
:1047D000B901FC0120E06115710579F18091AF020A
:1047E0008823F1F18530F1F18091E80083FD3CC030
:1047F0008091E80082FD2EC08091E80080FFEBCF21
:104800002091F3008091F20090E0922B61157105E8
:1048100051F08830910538F421912093F1006150D6
:1048200071090196F3CF21E0089709F020E080910B
:10483000E8008E778093E800CECF2111CFCF0AC059
:104840008091AF02882361F0853061F08091E800AB
:1048500083FD0AC08091E80082FFF2CF80E00895D6
:1048600082E0089583E0089581E008952091B602E2
:104870003091B7022617370748F06115710539F4F2
:104880002091E8002E772093E80001C0B901FC01D7
:1048900020E06115710591F18091AF02882309F440
:1048A00040C0853009F43FC08091E80083FD3DC0E1
:1048B0008091E80082FD2FC08091E80080FFE9CF61
:1048C0002091F3008091F20090E0922B6115710528
:1048D00059F08830910540F424912093F1003196ED
:1048E000615071090196F2CF21E0089709F020E0AC
:1048F0008091E8008E778093E800CBCF2111CCCF58
:104900000AC08091AF02882361F0853061F0809108
:10491000E80083FD0AC08091E80082FFF2CF80E0CA
:10492000089582E0089583E0089581E00895982F26
:10493000973068F59093E900981739F07091EC0082
:104940002091ED005091F00003C0242F762F50E00D
:1049500021FD02C09F5FECCF3091EB003E7F309392
:10496000EB003091ED003D7F3093ED003091EB0096
:1049700031603093EB007093EC002093ED00509386
:10498000F0002091EE0027FDE5CF80E008958F70C4
:104990008093E90081E008958091B00287FF11C003
:1049A0008091E80082FD05C08091AF028111F8CFAF
:1049B00011C08091E8008B770BC08091AF028823F3
:1049C00049F08091E80080FFF8CF8091E8008E7771
:1049D0008093E80008952091E4003091E50095E689
:1049E0004091EC00842F817040FF23C08091E8004B
:1049F00080FD1DC08091AF02882399F0853099F029
:104A00008091EB0085FD11C04091E4005091E500DC
:104A10002417350729F3915011F09A01E1CF84E072
:104A2000089582E0089583E0089581E0089580E08C
:104A300008954091E80042FFDDCF08950E948C2543
:104A40000E949425E0EEF0E0808181608083E8EDB3
:104A5000F0E080818F77808319BCA7EDB0E08C9166
:104A60008E7F8C9380818F7E80831092AE0208951A
:104A70000F931F93CF93DF930E948C250E94942560
:104A8000C8EDD0E088818F778883888180688883AB
:104A900088818F7D888319BC1092AF021092AB027F
:104AA0001092AD021092AC0200EE10E0F80180818D
:104AB0008B7F808388818160888342E060E080E032
:104AC0000E949724E1EEF0E080818E7F8083E2EE09
:104AD000F0E0808181608083808188608083F8013C
:104AE00080818E7F8083888180618883DF91CF91F0
:104AF0001F910F910895E8EDF0E080818F7E808313
:104B0000E7EDF0E080818160808384E082BF81E016
:104B10008093AE020C943825E8EDF0E080818E7F22
:104B200080831092E20008951092DA001092E10062
:104B300008951F920F920FB60F9211242F933F9357
:104B40004F935F936F937F938F939F93AF93BF9395
:104B5000EF93FF938091E10082FF0BC08091E20010
:104B600082FF07C08091E1008B7F8093E1000E946B
:104B70000F288091DA0080FF1FC08091D80080FF4D
:104B80001BC08091DA008E7F8093DA008091D9007B
:104B900080FF0DC080E189BD82E189BD09B400FEBE
:104BA000FDCF81E08093AF020E94E12105C019BCD6
:104BB0001092AF020E94EF218091E10080FF19C0A6
:104BC0008091E20080FF15C08091E2008E7F80938B
:104BD000E2008091E20080618093E2008091D80041
:104BE00080628093D80019BC85E08093AF020E9458
:104BF000F4218091E10084FF30C08091E20084FFC5
:104C00002CC080E189BD82E189BD09B400FEFDCFE1
:104C10008091D8008F7D8093D8008091E1008F7EB5
:104C20008093E1008091E2008F7E8093E20080918A
:104C3000E20081608093E2008091AB02882311F052
:104C400084E007C08091E30087FD02C081E001C0DD
:104C500083E08093AF020E94FC218091E10083FFFA
:104C600029C08091E20083FF25C08091E100877F09
:104C70008093E10082E08093AF021092AB028091BA
:104C8000E1008E7F8093E1008091E2008E7F80932F
:104C9000E2008091E20080618093E20042E060E007
:104CA00080E00E9497248091F00088608093F0005B
:104CB0000E94F221FF91EF91BF91AF919F918F914F
:104CC0007F916F915F914F913F912F910F900FBE08
:104CD0000F901F9018951F920F920FB60F921124EC
:104CE0002F933F934F935F936F937F938F939F93F4
:104CF000AF93BF93CF93DF93EF93FF93C091E900FE
:104D0000CF708091EC00D82FD17080FDD0E8109248
:104D1000E9008091F000877F8093F00078940E94F2
:104D2000AF261092E9008091F00088608093F00037
:104D3000CD2BCF70C093E900FF91EF91DF91CF9120
:104D4000BF91AF919F918F917F916F915F914F91A3
:104D50003F912F910F900FBE0F901F9018951F93AA
:104D6000CF93DF93CDB7DEB7AA970FB6F894DEBF27
:104D70000FBECDBFE0EBF2E08091F100819322E025
:104D8000E83BF207C9F70E941A228091E80083FFEE
:104D90002EC18091B0029091B102492F50E04A306B
:104DA000510508F024C1FA01EC58FF4F0C9451282A
:104DB000803821F0823809F01AC108C08091AC0215
:104DC0009091AD02992389F082600FC08091B40266
:104DD0008F70873008F00BC18093E9008091EB0061
:104DE00085FB882780F91092E9009091E800977F71
:104DF0009093E8008093F1001092F100D1C0282F29
:104E00002D7F09F0F4C0882319F0823061F0EFC0E3
:104E10008091B202813009F0EAC0933009F080E05D
:104E20008093AD022EC08091B20281112AC0809180
:104E3000B4028F702FEF280F263008F0D8C080936F
:104E4000E9002091EB0020FF1CC0933021F48091F9
:104E5000EB00806214C09091EB0090619093EB00A6
:104E600021E030E0A90102C0440F551F8A95E2F706
:104E70004093EA001092EA008091EB0088608093F2
:104E8000EB001092E9008091E800877F8093E800B2
:104E90000E94CC24ACC08111AAC01091B2021F772D
:104EA0008091E3008078812B8093E3008091E8007B
:104EB000877F8093E8000E94CC248091E80080FFE7
:104EC000FCCF8091E30080688093E300111102C061
:104ED00082E001C083E08093AF0289C080588230B5
:104EE00008F085C08091B2029091B3028C3D53E0EE
:104EF000950779F583E08A838AE289834FB7F8942E
:104F0000DE01139620E03EE051E2E32FF0E0509303
:104F10005700E49120FF03C0E295EF703F5FEF7010
:104F20008E2F90E0EA3010F0C79601C0C0968D93A6
:104F30009D932F5F243149F74FBF8091E800877F11
:104F40008093E8006AE270E0CE0101960E94D823C7
:104F500016C06091B4027091B502AE014F5F5F4F11
:104F60000E941C23BC01892B09F441C09091E800E8
:104F7000977F9093E80089819A810E9436248091DE
:104F8000E8008B778093E80032C0803881F580910B
:104F9000E800877F8093E8008091AB028093F10066
:104FA0008091E8008E7772CF811121C08091B2028A
:104FB0009091B30299270297D4F48091E800877FFB
:104FC0008093E8008091B2028093AB020E94CC24CF
:104FD0008091AB02811106C08091E30087FD02C081
:104FE00081E001C084E08093AF020E94062280919C
:104FF000E80083FF0AC08091E800877F8093E80083
:105000008091EB0080628093EB00AA960FB6F89433
:10501000DEBF0FBECDBFDF91CF911F9108950895E0
:10502000CF938091AF028823A1F0C091E900CF70A7
:105030009091EC00892F817090FD80E8C82B109230
:10504000E9008091E80083FD0E94AF26CF70C093F5
:10505000E900CF9108950E941E251092AF02089595
:10506000E8EDF0E08081806180838AE18A95F1F744
:1050700000C08091D9008170089597FB072E16F427
:10508000009407D077FD09D00E94572807FC05D06F
:105090003EF4909581959F4F0895709561957F4F4F
:1050A0000895EE0FFF1F0590F491E02D0994AA1BBF
:1050B000BB1B51E107C0AA1FBB1FA617B70710F003
:1050C000A61BB70B881F991F5A95A9F78095909535
:1050D000BC01CD010895FB01DC0104C08D9101905C
:1050E000801921F441505040C8F7881B990B08954E
:1050F000FB01DC0102C001900D9241505040D8F7F5
:105100000895F999FECF92BD81BDF89A992780B58F
:105110000895A8E1B0E042E050E00C94B528262FB5
:10512000F999FECF92BD81BDF89A019700B402169D
:1051300039F01FBA20BD0FB6F894FA9AF99A0FBE4B
:1051400008950396272F0E9490280E948F28252FCC
:105150000E949028242F0C9490280196272F0E94BB
:1051600090280C948F28DC01CB01FC01F999FECF2B
:1051700006C0F2BDE1BDF89A319600B40D924150DF
:0A5180005040B8F70895F894FFCFEF
:10518A00C8002202C6F7F6F5F4313332369391900D
:10519A009466973435FFFFFF00000000000000000E
:1051AA00000000000000000000000000019F020053
:1051BA00000001000000009F02000000040100003E
:1051CA00009F0204050000000000002808641E1465
:1051DA000A321E5F2182216321DD21D92162210148
:1051EA00E200E900EA00B500B600B700CD0083018D
:1051FA00CC008A0192019401210223022402250291
:10520A00260227022A02B300B4006F0070008182CE
:10521A0083E200E900EA00B500B600B700CD0083DA
:10522A0001CC008A01920194012102230224022561
:10523A0002260227022A02B300B4006F007000811E
:04524A008283470212
:00000001FF
